{
    "_format": "hh-sol-artifact-1",
    "contractName": "ArzNFT",
    "sourceName": "contracts/ArzNFT.sol",
    "abi": [
        {
            "inputs": [
                {
                    "internalType": "address",
                    "name": "_beneficiary",
                    "type": "address"
                },
                {
                    "internalType": "string",
                    "name": "_initBaseURI",
                    "type": "string"
                },
                {
                    "internalType": "bytes32",
                    "name": "_root",
                    "type": "bytes32"
                },
                {
                    "internalType": "uint32",
                    "name": "_royaltyPercentage",
                    "type": "uint32"
                }
            ],
            "stateMutability": "nonpayable",
            "type": "constructor"
        },
        {
            "inputs": [],
            "name": "ApprovalCallerNotOwnerNorApproved",
            "type": "error"
        },
        {
            "inputs": [],
            "name": "ApprovalQueryForNonexistentToken",
            "type": "error"
        },
        {
            "inputs": [],
            "name": "BalanceQueryForZeroAddress",
            "type": "error"
        },
        {
            "inputs": [],
            "name": "MintERC2309QuantityExceedsLimit",
            "type": "error"
        },
        {
            "inputs": [],
            "name": "MintToZeroAddress",
            "type": "error"
        },
        {
            "inputs": [],
            "name": "MintZeroQuantity",
            "type": "error"
        },
        {
            "inputs": [],
            "name": "OwnerQueryForNonexistentToken",
            "type": "error"
        },
        {
            "inputs": [],
            "name": "OwnershipNotInitializedForExtraData",
            "type": "error"
        },
        {
            "inputs": [],
            "name": "TransferCallerNotOwnerNorApproved",
            "type": "error"
        },
        {
            "inputs": [],
            "name": "TransferFromIncorrectOwner",
            "type": "error"
        },
        {
            "inputs": [],
            "name": "TransferToNonERC721ReceiverImplementer",
            "type": "error"
        },
        {
            "inputs": [],
            "name": "TransferToZeroAddress",
            "type": "error"
        },
        {
            "inputs": [],
            "name": "URIQueryForNonexistentToken",
            "type": "error"
        },
        {
            "anonymous": false,
            "inputs": [
                {
                    "indexed": true,
                    "internalType": "address",
                    "name": "owner",
                    "type": "address"
                },
                {
                    "indexed": true,
                    "internalType": "address",
                    "name": "approved",
                    "type": "address"
                },
                {
                    "indexed": true,
                    "internalType": "uint256",
                    "name": "tokenId",
                    "type": "uint256"
                }
            ],
            "name": "Approval",
            "type": "event"
        },
        {
            "anonymous": false,
            "inputs": [
                {
                    "indexed": true,
                    "internalType": "address",
                    "name": "owner",
                    "type": "address"
                },
                {
                    "indexed": true,
                    "internalType": "address",
                    "name": "operator",
                    "type": "address"
                },
                {
                    "indexed": false,
                    "internalType": "bool",
                    "name": "approved",
                    "type": "bool"
                }
            ],
            "name": "ApprovalForAll",
            "type": "event"
        },
        {
            "anonymous": false,
            "inputs": [
                {
                    "indexed": true,
                    "internalType": "uint256",
                    "name": "fromTokenId",
                    "type": "uint256"
                },
                {
                    "indexed": false,
                    "internalType": "uint256",
                    "name": "toTokenId",
                    "type": "uint256"
                },
                {
                    "indexed": true,
                    "internalType": "address",
                    "name": "from",
                    "type": "address"
                },
                {
                    "indexed": true,
                    "internalType": "address",
                    "name": "to",
                    "type": "address"
                }
            ],
            "name": "ConsecutiveTransfer",
            "type": "event"
        },
        {
            "anonymous": false,
            "inputs": [
                {
                    "indexed": true,
                    "internalType": "address",
                    "name": "previousOwner",
                    "type": "address"
                },
                {
                    "indexed": true,
                    "internalType": "address",
                    "name": "newOwner",
                    "type": "address"
                }
            ],
            "name": "OwnershipTransferred",
            "type": "event"
        },
        {
            "anonymous": false,
            "inputs": [
                {
                    "indexed": true,
                    "internalType": "address",
                    "name": "from",
                    "type": "address"
                },
                {
                    "indexed": true,
                    "internalType": "address",
                    "name": "to",
                    "type": "address"
                },
                {
                    "indexed": true,
                    "internalType": "uint256",
                    "name": "tokenId",
                    "type": "uint256"
                }
            ],
            "name": "Transfer",
            "type": "event"
        },
        {
            "inputs": [],
            "name": "MAX_SUPPLY",
            "outputs": [
                {
                    "internalType": "uint256",
                    "name": "",
                    "type": "uint256"
                }
            ],
            "stateMutability": "view",
            "type": "function"
        },
        {
            "inputs": [
                {
                    "internalType": "address",
                    "name": "_addressToWhitelist",
                    "type": "address"
                }
            ],
            "name": "addUser",
            "outputs": [],
            "stateMutability": "nonpayable",
            "type": "function"
        },
        {
            "inputs": [
                {
                    "internalType": "uint256",
                    "name": "quantity",
                    "type": "uint256"
                },
                {
                    "internalType": "address[]",
                    "name": "_addresses",
                    "type": "address[]"
                }
            ],
            "name": "airdrop",
            "outputs": [],
            "stateMutability": "nonpayable",
            "type": "function"
        },
        {
            "inputs": [
                {
                    "internalType": "address",
                    "name": "addr",
                    "type": "address"
                }
            ],
            "name": "alreadyMinted",
            "outputs": [
                {
                    "internalType": "uint256",
                    "name": "",
                    "type": "uint256"
                }
            ],
            "stateMutability": "view",
            "type": "function"
        },
        {
            "inputs": [
                {
                    "internalType": "address",
                    "name": "to",
                    "type": "address"
                },
                {
                    "internalType": "uint256",
                    "name": "tokenId",
                    "type": "uint256"
                }
            ],
            "name": "approve",
            "outputs": [],
            "stateMutability": "payable",
            "type": "function"
        },
        {
            "inputs": [
                {
                    "internalType": "address",
                    "name": "owner",
                    "type": "address"
                }
            ],
            "name": "balanceOf",
            "outputs": [
                {
                    "internalType": "uint256",
                    "name": "",
                    "type": "uint256"
                }
            ],
            "stateMutability": "view",
            "type": "function"
        },
        {
            "inputs": [],
            "name": "baseExtension",
            "outputs": [
                {
                    "internalType": "string",
                    "name": "",
                    "type": "string"
                }
            ],
            "stateMutability": "view",
            "type": "function"
        },
        {
            "inputs": [],
            "name": "baseURI",
            "outputs": [
                {
                    "internalType": "string",
                    "name": "",
                    "type": "string"
                }
            ],
            "stateMutability": "view",
            "type": "function"
        },
        {
            "inputs": [],
            "name": "beneficiary",
            "outputs": [
                {
                    "internalType": "address",
                    "name": "",
                    "type": "address"
                }
            ],
            "stateMutability": "view",
            "type": "function"
        },
        {
            "inputs": [
                {
                    "internalType": "uint256",
                    "name": "tokenId",
                    "type": "uint256"
                }
            ],
            "name": "getApproved",
            "outputs": [
                {
                    "internalType": "address",
                    "name": "",
                    "type": "address"
                }
            ],
            "stateMutability": "view",
            "type": "function"
        },
        {
            "inputs": [
                {
                    "internalType": "address",
                    "name": "owner",
                    "type": "address"
                },
                {
                    "internalType": "address",
                    "name": "operator",
                    "type": "address"
                }
            ],
            "name": "isApprovedForAll",
            "outputs": [
                {
                    "internalType": "bool",
                    "name": "",
                    "type": "bool"
                }
            ],
            "stateMutability": "view",
            "type": "function"
        },
        {
            "inputs": [
                {
                    "internalType": "bytes32[]",
                    "name": "proof",
                    "type": "bytes32[]"
                },
                {
                    "internalType": "bytes32",
                    "name": "leaf",
                    "type": "bytes32"
                }
            ],
            "name": "isValid",
            "outputs": [
                {
                    "internalType": "bool",
                    "name": "",
                    "type": "bool"
                }
            ],
            "stateMutability": "view",
            "type": "function"
        },
        {
            "inputs": [],
            "name": "name",
            "outputs": [
                {
                    "internalType": "string",
                    "name": "",
                    "type": "string"
                }
            ],
            "stateMutability": "view",
            "type": "function"
        },
        {
            "inputs": [],
            "name": "nftContractAddress",
            "outputs": [
                {
                    "internalType": "address",
                    "name": "",
                    "type": "address"
                }
            ],
            "stateMutability": "view",
            "type": "function"
        },
        {
            "inputs": [],
            "name": "notRevealedUri",
            "outputs": [
                {
                    "internalType": "string",
                    "name": "",
                    "type": "string"
                }
            ],
            "stateMutability": "view",
            "type": "function"
        },
        {
            "inputs": [
                {
                    "internalType": "address",
                    "name": "owner",
                    "type": "address"
                }
            ],
            "name": "numberMinted",
            "outputs": [
                {
                    "internalType": "uint256",
                    "name": "",
                    "type": "uint256"
                }
            ],
            "stateMutability": "view",
            "type": "function"
        },
        {
            "inputs": [],
            "name": "owner",
            "outputs": [
                {
                    "internalType": "address",
                    "name": "",
                    "type": "address"
                }
            ],
            "stateMutability": "view",
            "type": "function"
        },
        {
            "inputs": [
                {
                    "internalType": "address",
                    "name": "to",
                    "type": "address"
                },
                {
                    "internalType": "uint256",
                    "name": "quantity",
                    "type": "uint256"
                }
            ],
            "name": "ownerMint",
            "outputs": [],
            "stateMutability": "nonpayable",
            "type": "function"
        },
        {
            "inputs": [
                {
                    "internalType": "uint256",
                    "name": "tokenId",
                    "type": "uint256"
                }
            ],
            "name": "ownerOf",
            "outputs": [
                {
                    "internalType": "address",
                    "name": "",
                    "type": "address"
                }
            ],
            "stateMutability": "view",
            "type": "function"
        },
        {
            "inputs": [],
            "name": "pause",
            "outputs": [
                {
                    "internalType": "bool",
                    "name": "",
                    "type": "bool"
                }
            ],
            "stateMutability": "view",
            "type": "function"
        },
        {
            "inputs": [
                {
                    "internalType": "uint256",
                    "name": "_price",
                    "type": "uint256"
                }
            ],
            "name": "payRoyalty",
            "outputs": [],
            "stateMutability": "payable",
            "type": "function"
        },
        {
            "inputs": [],
            "name": "preIsActive",
            "outputs": [
                {
                    "internalType": "bool",
                    "name": "",
                    "type": "bool"
                }
            ],
            "stateMutability": "view",
            "type": "function"
        },
        {
            "inputs": [
                {
                    "internalType": "uint256",
                    "name": "quantity",
                    "type": "uint256"
                }
            ],
            "name": "preMint",
            "outputs": [],
            "stateMutability": "payable",
            "type": "function"
        },
        {
            "inputs": [],
            "name": "preSale_LIMIT",
            "outputs": [
                {
                    "internalType": "uint256",
                    "name": "",
                    "type": "uint256"
                }
            ],
            "stateMutability": "view",
            "type": "function"
        },
        {
            "inputs": [],
            "name": "preSale_PRICE",
            "outputs": [
                {
                    "internalType": "uint256",
                    "name": "",
                    "type": "uint256"
                }
            ],
            "stateMutability": "view",
            "type": "function"
        },
        {
            "inputs": [],
            "name": "pre_MAX",
            "outputs": [
                {
                    "internalType": "uint256",
                    "name": "",
                    "type": "uint256"
                }
            ],
            "stateMutability": "view",
            "type": "function"
        },
        {
            "inputs": [],
            "name": "pre_curr",
            "outputs": [
                {
                    "internalType": "uint256",
                    "name": "",
                    "type": "uint256"
                }
            ],
            "stateMutability": "view",
            "type": "function"
        },
        {
            "inputs": [],
            "name": "provenanceHash",
            "outputs": [
                {
                    "internalType": "string",
                    "name": "",
                    "type": "string"
                }
            ],
            "stateMutability": "view",
            "type": "function"
        },
        {
            "inputs": [],
            "name": "publicIsActive",
            "outputs": [
                {
                    "internalType": "bool",
                    "name": "",
                    "type": "bool"
                }
            ],
            "stateMutability": "view",
            "type": "function"
        },
        {
            "inputs": [
                {
                    "internalType": "uint256",
                    "name": "quantity",
                    "type": "uint256"
                }
            ],
            "name": "publicMint",
            "outputs": [],
            "stateMutability": "payable",
            "type": "function"
        },
        {
            "inputs": [],
            "name": "public_LIMIT",
            "outputs": [
                {
                    "internalType": "uint256",
                    "name": "",
                    "type": "uint256"
                }
            ],
            "stateMutability": "view",
            "type": "function"
        },
        {
            "inputs": [],
            "name": "public_MAX",
            "outputs": [
                {
                    "internalType": "uint256",
                    "name": "",
                    "type": "uint256"
                }
            ],
            "stateMutability": "view",
            "type": "function"
        },
        {
            "inputs": [],
            "name": "public_PRICE",
            "outputs": [
                {
                    "internalType": "uint256",
                    "name": "",
                    "type": "uint256"
                }
            ],
            "stateMutability": "view",
            "type": "function"
        },
        {
            "inputs": [
                {
                    "internalType": "address",
                    "name": "_addressToWhitelist",
                    "type": "address"
                }
            ],
            "name": "removeUser",
            "outputs": [],
            "stateMutability": "nonpayable",
            "type": "function"
        },
        {
            "inputs": [],
            "name": "renounceOwnership",
            "outputs": [],
            "stateMutability": "nonpayable",
            "type": "function"
        },
        {
            "inputs": [
                {
                    "internalType": "bool",
                    "name": "_reveal",
                    "type": "bool"
                }
            ],
            "name": "reveal",
            "outputs": [],
            "stateMutability": "nonpayable",
            "type": "function"
        },
        {
            "inputs": [],
            "name": "revealed",
            "outputs": [
                {
                    "internalType": "bool",
                    "name": "",
                    "type": "bool"
                }
            ],
            "stateMutability": "view",
            "type": "function"
        },
        {
            "inputs": [],
            "name": "root",
            "outputs": [
                {
                    "internalType": "bytes32",
                    "name": "",
                    "type": "bytes32"
                }
            ],
            "stateMutability": "view",
            "type": "function"
        },
        {
            "inputs": [
                {
                    "internalType": "uint256",
                    "name": "tokenId",
                    "type": "uint256"
                },
                {
                    "internalType": "uint256",
                    "name": "salePrice",
                    "type": "uint256"
                }
            ],
            "name": "royaltyInfo",
            "outputs": [
                {
                    "internalType": "address",
                    "name": "",
                    "type": "address"
                },
                {
                    "internalType": "uint256",
                    "name": "",
                    "type": "uint256"
                }
            ],
            "stateMutability": "view",
            "type": "function"
        },
        {
            "inputs": [],
            "name": "royaltyPercentage",
            "outputs": [
                {
                    "internalType": "uint32",
                    "name": "",
                    "type": "uint32"
                }
            ],
            "stateMutability": "view",
            "type": "function"
        },
        {
            "inputs": [
                {
                    "internalType": "address",
                    "name": "from",
                    "type": "address"
                },
                {
                    "internalType": "address",
                    "name": "to",
                    "type": "address"
                },
                {
                    "internalType": "uint256",
                    "name": "tokenId",
                    "type": "uint256"
                }
            ],
            "name": "safeTransferFrom",
            "outputs": [],
            "stateMutability": "payable",
            "type": "function"
        },
        {
            "inputs": [
                {
                    "internalType": "address",
                    "name": "from",
                    "type": "address"
                },
                {
                    "internalType": "address",
                    "name": "to",
                    "type": "address"
                },
                {
                    "internalType": "uint256",
                    "name": "tokenId",
                    "type": "uint256"
                },
                {
                    "internalType": "bytes",
                    "name": "_data",
                    "type": "bytes"
                }
            ],
            "name": "safeTransferFrom",
            "outputs": [],
            "stateMutability": "payable",
            "type": "function"
        },
        {
            "inputs": [
                {
                    "internalType": "address",
                    "name": "operator",
                    "type": "address"
                },
                {
                    "internalType": "bool",
                    "name": "approved",
                    "type": "bool"
                }
            ],
            "name": "setApprovalForAll",
            "outputs": [],
            "stateMutability": "nonpayable",
            "type": "function"
        },
        {
            "inputs": [
                {
                    "internalType": "string",
                    "name": "_newBaseURI",
                    "type": "string"
                }
            ],
            "name": "setBaseURI",
            "outputs": [],
            "stateMutability": "nonpayable",
            "type": "function"
        },
        {
            "inputs": [
                {
                    "internalType": "address",
                    "name": "_beneficiary",
                    "type": "address"
                }
            ],
            "name": "setBeneficiary",
            "outputs": [],
            "stateMutability": "nonpayable",
            "type": "function"
        },
        {
            "inputs": [
                {
                    "internalType": "string",
                    "name": "_notRevealedURI",
                    "type": "string"
                }
            ],
            "name": "setNotRevealedURI",
            "outputs": [],
            "stateMutability": "nonpayable",
            "type": "function"
        },
        {
            "inputs": [
                {
                    "internalType": "bool",
                    "name": "_preIsActive",
                    "type": "bool"
                }
            ],
            "name": "setPreActive",
            "outputs": [],
            "stateMutability": "nonpayable",
            "type": "function"
        },
        {
            "inputs": [
                {
                    "internalType": "string",
                    "name": "hash",
                    "type": "string"
                }
            ],
            "name": "setProvenanceHash",
            "outputs": [],
            "stateMutability": "nonpayable",
            "type": "function"
        },
        {
            "inputs": [
                {
                    "internalType": "bool",
                    "name": "_publicIsActive",
                    "type": "bool"
                }
            ],
            "name": "setPublicActive",
            "outputs": [],
            "stateMutability": "nonpayable",
            "type": "function"
        },
        {
            "inputs": [
                {
                    "internalType": "bool",
                    "name": "_whitelistIsActive",
                    "type": "bool"
                }
            ],
            "name": "setWhitelistActive",
            "outputs": [],
            "stateMutability": "nonpayable",
            "type": "function"
        },
        {
            "inputs": [
                {
                    "internalType": "bytes4",
                    "name": "interfaceId",
                    "type": "bytes4"
                }
            ],
            "name": "supportsInterface",
            "outputs": [
                {
                    "internalType": "bool",
                    "name": "",
                    "type": "bool"
                }
            ],
            "stateMutability": "view",
            "type": "function"
        },
        {
            "inputs": [],
            "name": "symbol",
            "outputs": [
                {
                    "internalType": "string",
                    "name": "",
                    "type": "string"
                }
            ],
            "stateMutability": "view",
            "type": "function"
        },
        {
            "inputs": [
                {
                    "internalType": "uint256",
                    "name": "tokenId",
                    "type": "uint256"
                }
            ],
            "name": "tokenURI",
            "outputs": [
                {
                    "internalType": "string",
                    "name": "",
                    "type": "string"
                }
            ],
            "stateMutability": "view",
            "type": "function"
        },
        {
            "inputs": [],
            "name": "totalSupply",
            "outputs": [
                {
                    "internalType": "uint256",
                    "name": "",
                    "type": "uint256"
                }
            ],
            "stateMutability": "view",
            "type": "function"
        },
        {
            "inputs": [
                {
                    "internalType": "address",
                    "name": "from",
                    "type": "address"
                },
                {
                    "internalType": "address",
                    "name": "to",
                    "type": "address"
                },
                {
                    "internalType": "uint256",
                    "name": "tokenId",
                    "type": "uint256"
                }
            ],
            "name": "transferFrom",
            "outputs": [],
            "stateMutability": "payable",
            "type": "function"
        },
        {
            "inputs": [
                {
                    "internalType": "address",
                    "name": "newOwner",
                    "type": "address"
                }
            ],
            "name": "transferOwnership",
            "outputs": [],
            "stateMutability": "nonpayable",
            "type": "function"
        },
        {
            "inputs": [
                {
                    "internalType": "uint32",
                    "name": "_royaltyPercentage",
                    "type": "uint32"
                }
            ],
            "name": "updateRoyaltyPer",
            "outputs": [],
            "stateMutability": "nonpayable",
            "type": "function"
        },
        {
            "inputs": [],
            "name": "whitelistIsActive",
            "outputs": [
                {
                    "internalType": "bool",
                    "name": "",
                    "type": "bool"
                }
            ],
            "stateMutability": "view",
            "type": "function"
        },
        {
            "inputs": [
                {
                    "internalType": "uint256",
                    "name": "quantity",
                    "type": "uint256"
                },
                {
                    "internalType": "bytes32[]",
                    "name": "proof",
                    "type": "bytes32[]"
                }
            ],
            "name": "whitelistMint",
            "outputs": [],
            "stateMutability": "payable",
            "type": "function"
        },
        {
            "inputs": [],
            "name": "whitelist_LIMIT",
            "outputs": [
                {
                    "internalType": "uint256",
                    "name": "",
                    "type": "uint256"
                }
            ],
            "stateMutability": "view",
            "type": "function"
        },
        {
            "inputs": [],
            "name": "whitelist_PRICE",
            "outputs": [
                {
                    "internalType": "uint256",
                    "name": "",
                    "type": "uint256"
                }
            ],
            "stateMutability": "view",
            "type": "function"
        },
        {
            "inputs": [],
            "name": "withdraw",
            "outputs": [],
            "stateMutability": "nonpayable",
            "type": "function"
        }
    ],
    "bytecode": "0x60806040526040518060400160405280600581526020017f2e6a736f6e000000000000000000000000000000000000000000000000000000815250600f90805190602001906200005192919062000432565b50600060145560006015556000601660006101000a81548160ff0219169083151502179055506000601660016101000a81548160ff0219169083151502179055506000601660026101000a81548160ff0219169083151502179055506000601660036101000a81548160ff0219169083151502179055506000601660046101000a81548160ff021916908315150217905550348015620000f057600080fd5b5060405162005d7738038062005d778339818101604052810190620001169190620005a5565b6040518060400160405280600681526020017f41727a4e465400000000000000000000000000000000000000000000000000008152506040518060400160405280600381526020017f41525a000000000000000000000000000000000000000000000000000000000081525081600290805190602001906200019a92919062000432565b508060039080519060200190620001b392919062000432565b50620001c46200027860201b60201c565b6000819055505050620001ec620001e06200027d60201b60201c565b6200028560201b60201c565b600160098190555083601960006101000a81548173ffffffffffffffffffffffffffffffffffffffff021916908373ffffffffffffffffffffffffffffffffffffffff16021790555062000246836200034b60201b60201c565b8160118190555080601960146101000a81548163ffffffff021916908363ffffffff16021790555050505050620008d9565b600090565b600033905090565b6000600860009054906101000a900473ffffffffffffffffffffffffffffffffffffffff16905081600860006101000a81548173ffffffffffffffffffffffffffffffffffffffff021916908373ffffffffffffffffffffffffffffffffffffffff1602179055508173ffffffffffffffffffffffffffffffffffffffff168173ffffffffffffffffffffffffffffffffffffffff167f8be0079c531659141344cd1fd0a4f28419497f9722a3daafe3b4186f6b6457e060405160405180910390a35050565b6200035b6200037760201b60201c565b80600e90805190602001906200037392919062000432565b5050565b620003876200027d60201b60201c565b73ffffffffffffffffffffffffffffffffffffffff16620003ad6200040860201b60201c565b73ffffffffffffffffffffffffffffffffffffffff161462000406576040517f08c379a0000000000000000000000000000000000000000000000000000000008152600401620003fd906200065d565b60405180910390fd5b565b6000600860009054906101000a900473ffffffffffffffffffffffffffffffffffffffff16905090565b828054620004409062000773565b90600052602060002090601f016020900481019282620004645760008555620004b0565b82601f106200047f57805160ff1916838001178555620004b0565b82800160010185558215620004b0579182015b82811115620004af57825182559160200191906001019062000492565b5b509050620004bf9190620004c3565b5090565b5b80821115620004de576000816000905550600101620004c4565b5090565b6000620004f9620004f384620006a8565b6200067f565b90508281526020810184848401111562000518576200051762000842565b5b620005258482856200073d565b509392505050565b6000815190506200053e816200088b565b92915050565b6000815190506200055581620008a5565b92915050565b600082601f8301126200057357620005726200083d565b5b815162000585848260208601620004e2565b91505092915050565b6000815190506200059f81620008bf565b92915050565b60008060008060808587031215620005c257620005c16200084c565b5b6000620005d2878288016200052d565b945050602085015167ffffffffffffffff811115620005f657620005f562000847565b5b62000604878288016200055b565b9350506040620006178782880162000544565b92505060606200062a878288016200058e565b91505092959194509250565b600062000645602083620006de565b9150620006528262000862565b602082019050919050565b60006020820190508181036000830152620006788162000636565b9050919050565b60006200068b6200069e565b9050620006998282620007a9565b919050565b6000604051905090565b600067ffffffffffffffff821115620006c657620006c56200080e565b5b620006d18262000851565b9050602081019050919050565b600082825260208201905092915050565b6000620006fc826200070d565b9050919050565b6000819050919050565b600073ffffffffffffffffffffffffffffffffffffffff82169050919050565b600063ffffffff82169050919050565b60005b838110156200075d57808201518184015260208101905062000740565b838111156200076d576000848401525b50505050565b600060028204905060018216806200078c57607f821691505b60208210811415620007a357620007a2620007df565b5b50919050565b620007b48262000851565b810181811067ffffffffffffffff82111715620007d657620007d56200080e565b5b80604052505050565b7f4e487b7100000000000000000000000000000000000000000000000000000000600052602260045260246000fd5b7f4e487b7100000000000000000000000000000000000000000000000000000000600052604160045260246000fd5b600080fd5b600080fd5b600080fd5b600080fd5b6000601f19601f8301169050919050565b7f4f776e61626c653a2063616c6c6572206973206e6f7420746865206f776e6572600082015250565b6200089681620006ef565b8114620008a257600080fd5b50565b620008b08162000703565b8114620008bc57600080fd5b50565b620008ca816200072d565b8114620008d657600080fd5b50565b61548e80620008e96000396000f3fe6080604052600436106103ac5760003560e01c80636c0360eb116101e7578063b8a20ed01161010d578063d2cab056116100a0578063e985e9c51161006f578063e985e9c514610d58578063ebf0c71714610d95578063f2c4ce1e14610dc0578063f2fde38b14610de9576103ac565b8063d2cab05614610cab578063d333bf8914610cc7578063dc33e68114610cf2578063e7a64d3d14610d2f576103ac565b8063c6ab67a3116100dc578063c6ab67a314610bfe578063c717933314610c29578063c7cc9b1114610c52578063c87b56dd14610c6e576103ac565b8063b8a20ed014610b44578063bdf7a8e614610b81578063c3b754dc14610baa578063c668286214610bd3576103ac565b80638da5cb5b11610185578063a22cb46511610154578063a22cb46514610aa9578063a6b9557b14610ad2578063aae282e114610afd578063b88d4fde14610b28576103ac565b80638da5cb5b14610a01578063940cd05b14610a2c57806395d89b4114610a555780639857518814610a80576103ac565b80638456cb59116101c15780638456cb59146109665780638a71bb2d146109915780638aca408c146109bc5780638ad433ac146109e5576103ac565b80636c0360eb146108e757806370a0823114610912578063715018a61461094f576103ac565b806323b872dd116102d7578063421b2d8b1161026a57806355f804b31161023957806355f804b31461082b5780636352211e1461085457806368d21bfd146108915780636aaaeb2c146108bc576103ac565b8063421b2d8b1461079257806342842e0e146107bb578063484b973c146107d75780635183022714610800576103ac565b806332cb6b0c116102a657806332cb6b0c146106fa57806338af3eed146107255780633ccfd60b146107505780633fc18b0714610767576103ac565b806323b872dd146106595780632a55205a146106755780632aabc53a146106b35780632db11544146106de576103ac565b8063095ea7b31161034f578063109695231161031e57806310969523146105b157806318160ddd146105da5780631c31f710146106055780631fe70d6f1461062e576103ac565b8063095ea7b31461050257806309ed08f21461051e5780630a398b88146105495780630e82767814610586576103ac565b806304a99f7c1161038b57806304a99f7c1461044457806306fdde031461046f578063081812fc1461049a578063081c8c44146104d7576103ac565b8062a78b6e146103b157806301ffc9a7146103dc578063033a02d614610419575b600080fd5b3480156103bd57600080fd5b506103c6610e12565b6040516103d39190614b1b565b60405180910390f35b3480156103e857600080fd5b5061040360048036038101906103fe9190614176565b610e17565b60405161041091906148a3565b60405180910390f35b34801561042557600080fd5b5061042e610e39565b60405161043b91906148a3565b60405180910390f35b34801561045057600080fd5b50610459610e4c565b6040516104669190614b1b565b60405180910390f35b34801561047b57600080fd5b50610484610e51565b60405161049191906148d9565b60405180910390f35b3480156104a657600080fd5b506104c160048036038101906104bc9190614266565b610ee3565b6040516104ce9190614813565b60405180910390f35b3480156104e357600080fd5b506104ec610f62565b6040516104f991906148d9565b60405180910390f35b61051c600480360381019061051791906140ad565b610ff0565b005b34801561052a57600080fd5b50610533611134565b60405161054091906148a3565b60405180910390f35b34801561055557600080fd5b50610570600480360381019061056b9190613f2a565b611147565b60405161057d9190614b1b565b60405180910390f35b34801561059257600080fd5b5061059b611190565b6040516105a89190614b1b565b60405180910390f35b3480156105bd57600080fd5b506105d860048036038101906105d391906141d0565b61119a565b005b3480156105e657600080fd5b506105ef6111b8565b6040516105fc9190614b1b565b60405180910390f35b34801561061157600080fd5b5061062c60048036038101906106279190613f2a565b6111cf565b005b34801561063a57600080fd5b5061064361121b565b60405161065091906148a3565b60405180910390f35b610673600480360381019061066e9190613f97565b61122e565b005b34801561068157600080fd5b5061069c6004803603810190610697919061434b565b611553565b6040516106aa92919061487a565b60405180910390f35b3480156106bf57600080fd5b506106c861173e565b6040516106d59190614b1b565b60405180910390f35b6106f860048036038101906106f39190614266565b611748565b005b34801561070657600080fd5b5061070f6119a9565b60405161071c9190614b1b565b60405180910390f35b34801561073157600080fd5b5061073a6119af565b6040516107479190614813565b60405180910390f35b34801561075c57600080fd5b506107656119d5565b005b34801561077357600080fd5b5061077c611a48565b6040516107899190614b1b565b60405180910390f35b34801561079e57600080fd5b506107b960048036038101906107b49190613f2a565b611a52565b005b6107d560048036038101906107d09190613f97565b611bc4565b005b3480156107e357600080fd5b506107fe60048036038101906107f991906140ad565b611be4565b005b34801561080c57600080fd5b50610815611bfa565b60405161082291906148a3565b60405180910390f35b34801561083757600080fd5b50610852600480360381019061084d919061421d565b611c0d565b005b34801561086057600080fd5b5061087b60048036038101906108769190614266565b611c2f565b6040516108889190614813565b60405180910390f35b34801561089d57600080fd5b506108a6611c41565b6040516108b39190614b1b565b60405180910390f35b3480156108c857600080fd5b506108d1611c46565b6040516108de9190614b1b565b60405180910390f35b3480156108f357600080fd5b506108fc611c4c565b60405161090991906148d9565b60405180910390f35b34801561091e57600080fd5b5061093960048036038101906109349190613f2a565b611cda565b6040516109469190614b1b565b60405180910390f35b34801561095b57600080fd5b50610964611d93565b005b34801561097257600080fd5b5061097b611da7565b60405161098891906148a3565b60405180910390f35b34801561099d57600080fd5b506109a6611dba565b6040516109b39190614b36565b60405180910390f35b3480156109c857600080fd5b506109e360048036038101906109de9190614149565b611dd0565b005b6109ff60048036038101906109fa9190614266565b611df5565b005b348015610a0d57600080fd5b50610a16612106565b604051610a239190614813565b60405180910390f35b348015610a3857600080fd5b50610a536004803603810190610a4e9190614149565b612130565b005b348015610a6157600080fd5b50610a6a612155565b604051610a7791906148d9565b60405180910390f35b348015610a8c57600080fd5b50610aa76004803603810190610aa29190613f2a565b6121e7565b005b348015610ab557600080fd5b50610ad06004803603810190610acb919061406d565b61224a565b005b348015610ade57600080fd5b50610ae7612355565b604051610af49190614b1b565b60405180910390f35b348015610b0957600080fd5b50610b1261235b565b604051610b1f9190614813565b60405180910390f35b610b426004803603810190610b3d9190613fea565b612381565b005b348015610b5057600080fd5b50610b6b6004803603810190610b6691906140ed565b6123f4565b604051610b7891906148a3565b60405180910390f35b348015610b8d57600080fd5b50610ba86004803603810190610ba39190614293565b61240b565b005b348015610bb657600080fd5b50610bd16004803603810190610bcc9190614149565b6124be565b005b348015610bdf57600080fd5b50610be86124e3565b604051610bf591906148d9565b60405180910390f35b348015610c0a57600080fd5b50610c13612571565b604051610c2091906148d9565b60405180910390f35b348015610c3557600080fd5b50610c506004803603810190610c4b9190614149565b6125ff565b005b610c6c6004803603810190610c679190614266565b612624565b005b348015610c7a57600080fd5b50610c956004803603810190610c909190614266565b6126e5565b604051610ca291906148d9565b60405180910390f35b610cc56004803603810190610cc091906142ef565b612836565b005b348015610cd357600080fd5b50610cdc612bea565b604051610ce99190614b1b565b60405180910390f35b348015610cfe57600080fd5b50610d196004803603810190610d149190613f2a565b612bf0565b604051610d269190614b1b565b60405180910390f35b348015610d3b57600080fd5b50610d566004803603810190610d51919061438b565b612c02565b005b348015610d6457600080fd5b50610d7f6004803603810190610d7a9190613f57565b612c78565b604051610d8c91906148a3565b60405180910390f35b348015610da157600080fd5b50610daa612d0c565b604051610db791906148be565b60405180910390f35b348015610dcc57600080fd5b50610de76004803603810190610de2919061421d565b612d12565b005b348015610df557600080fd5b50610e106004803603810190610e0b9190613f2a565b612d34565b005b600581565b6000610e2282612db8565b80610e325750610e3182612e4a565b5b9050919050565b601660019054906101000a900460ff1681565b600381565b606060028054610e6090614ea9565b80601f0160208091040260200160405190810160405280929190818152602001828054610e8c90614ea9565b8015610ed95780601f10610eae57610100808354040283529160200191610ed9565b820191906000526020600020905b815481529060010190602001808311610ebc57829003601f168201915b5050505050905090565b6000610eee82612ec4565b610f24576040517fcf4700e400000000000000000000000000000000000000000000000000000000815260040160405180910390fd5b6006600083815260200190815260200160002060000160009054906101000a900473ffffffffffffffffffffffffffffffffffffffff169050919050565b60178054610f6f90614ea9565b80601f0160208091040260200160405190810160405280929190818152602001828054610f9b90614ea9565b8015610fe85780601f10610fbd57610100808354040283529160200191610fe8565b820191906000526020600020905b815481529060010190602001808311610fcb57829003601f168201915b505050505081565b6000610ffb82611c2f565b90508073ffffffffffffffffffffffffffffffffffffffff1661101c612f23565b73ffffffffffffffffffffffffffffffffffffffff161461107f5761104881611043612f23565b612c78565b61107e576040517fcfb3b94200000000000000000000000000000000000000000000000000000000815260040160405180910390fd5b5b826006600084815260200190815260200160002060000160006101000a81548173ffffffffffffffffffffffffffffffffffffffff021916908373ffffffffffffffffffffffffffffffffffffffff160217905550818373ffffffffffffffffffffffffffffffffffffffff168273ffffffffffffffffffffffffffffffffffffffff167f8c5be1e5ebec7d5bd14f71427d1e84f3dd0314c0f7b2291e5b200ac8c7c3b92560405160405180910390a4505050565b601660029054906101000a900460ff1681565b6000601860008373ffffffffffffffffffffffffffffffffffffffff1673ffffffffffffffffffffffffffffffffffffffff168152602001908152602001600020549050919050565b655af3107a400081565b6111a2612f2b565b8181600d91906111b3929190613afc565b505050565b60006111c2612fa9565b6001546000540303905090565b6111d7612f2b565b80601960006101000a81548173ffffffffffffffffffffffffffffffffffffffff021916908373ffffffffffffffffffffffffffffffffffffffff16021790555050565b601660009054906101000a900460ff1681565b600061123982612fae565b90508373ffffffffffffffffffffffffffffffffffffffff168173ffffffffffffffffffffffffffffffffffffffff16146112a0576040517fa114810000000000000000000000000000000000000000000000000000000000815260040160405180910390fd5b6000806112ac8461307c565b915091506112c281876112bd612f23565b6130a3565b61130e576112d7866112d2612f23565b612c78565b61130d576040517f59c896be00000000000000000000000000000000000000000000000000000000815260040160405180910390fd5b5b600073ffffffffffffffffffffffffffffffffffffffff168573ffffffffffffffffffffffffffffffffffffffff161415611375576040517fea553b3400000000000000000000000000000000000000000000000000000000815260040160405180910390fd5b61138286868660016130e7565b801561138d57600082555b600560008773ffffffffffffffffffffffffffffffffffffffff1673ffffffffffffffffffffffffffffffffffffffff168152602001908152602001600020600081546001900391905081905550600560008673ffffffffffffffffffffffffffffffffffffffff1673ffffffffffffffffffffffffffffffffffffffff168152602001908152602001600020600081546001019190508190555061145b856114378888876130ed565b7c020000000000000000000000000000000000000000000000000000000017613115565b600460008681526020019081526020016000208190555060007c0200000000000000000000000000000000000000000000000000000000841614156114e35760006001850190506000600460008381526020019081526020016000205414156114e15760005481146114e0578360046000838152602001908152602001600020819055505b5b505b838573ffffffffffffffffffffffffffffffffffffffff168773ffffffffffffffffffffffffffffffffffffffff167fddf252ad1be2c89b69c2b068fc378daa952ba7f163c4a11628f55a4df523b3ef60405160405180910390a461154b8686866001613140565b505050505050565b6000806000600b60008681526020019081526020016000206040518060400160405290816000820160009054906101000a900473ffffffffffffffffffffffffffffffffffffffff1673ffffffffffffffffffffffffffffffffffffffff1673ffffffffffffffffffffffffffffffffffffffff1681526020016000820160149054906101000a90046bffffffffffffffffffffffff166bffffffffffffffffffffffff166bffffffffffffffffffffffff16815250509050600073ffffffffffffffffffffffffffffffffffffffff16816000015173ffffffffffffffffffffffffffffffffffffffff1614156116e957600a6040518060400160405290816000820160009054906101000a900473ffffffffffffffffffffffffffffffffffffffff1673ffffffffffffffffffffffffffffffffffffffff1673ffffffffffffffffffffffffffffffffffffffff1681526020016000820160149054906101000a90046bffffffffffffffffffffffff166bffffffffffffffffffffffff166bffffffffffffffffffffffff168152505090505b60006116f3613146565b6bffffffffffffffffffffffff1682602001516bffffffffffffffffffffffff168661171f9190614d4b565b6117299190614ce9565b90508160000151819350935050509250929050565b655af3107a400081565b611750613150565b600061175a6131a0565b9050601660019054906101000a900460ff166117ab576040517f08c379a00000000000000000000000000000000000000000000000000000000081526004016117a29061491b565b60405180910390fd5b601454610190116117f1576040517f08c379a00000000000000000000000000000000000000000000000000000000081526004016117e89061495b565b60405180910390fd5b816014546117ff9190614c93565b6101901015611843576040517f08c379a000000000000000000000000000000000000000000000000000000000815260040161183a90614abb565b60405180910390fd5b601860008273ffffffffffffffffffffffffffffffffffffffff1673ffffffffffffffffffffffffffffffffffffffff16815260200190815260200160002054600361188f9190614da5565b8211156118d1576040517f08c379a00000000000000000000000000000000000000000000000000000000081526004016118c89061493b565b60405180910390fd5b81655af3107a40006118e39190614d4b565b3414611924576040517f08c379a000000000000000000000000000000000000000000000000000000000815260040161191b90614a1b565b60405180910390fd5b61192e81836131a8565b81601460008282546119409190614c93565b9250508190555081601860008373ffffffffffffffffffffffffffffffffffffffff1673ffffffffffffffffffffffffffffffffffffffff16815260200190815260200160002060008282546119969190614c93565b92505081905550506119a661320e565b50565b6103e881565b601960009054906101000a900473ffffffffffffffffffffffffffffffffffffffff1681565b6119dd612f2b565b601960009054906101000a900473ffffffffffffffffffffffffffffffffffffffff1673ffffffffffffffffffffffffffffffffffffffff166108fc479081150290604051600060405180830381858888f19350505050158015611a45573d6000803e3d6000fd5b50565b655af3107a400081565b611a5a612f2b565b601260003373ffffffffffffffffffffffffffffffffffffffff1673ffffffffffffffffffffffffffffffffffffffff16815260200190815260200160002060009054906101000a900460ff1615611ae7576040517f08c379a0000000000000000000000000000000000000000000000000000000008152600401611ade90614a5b565b60405180910390fd5b655af3107a40008173ffffffffffffffffffffffffffffffffffffffff16311015611b1157600080fd5b6001601260008373ffffffffffffffffffffffffffffffffffffffff1673ffffffffffffffffffffffffffffffffffffffff16815260200190815260200160002060006101000a81548160ff0219169083151502179055506000601360008373ffffffffffffffffffffffffffffffffffffffff1673ffffffffffffffffffffffffffffffffffffffff16815260200190815260200160002060006101000a81548160ff02191690831515021790555050565b611bdf83838360405180602001604052806000815250612381565b505050565b611bec612f2b565b611bf682826131a8565b5050565b601660049054906101000a900460ff1681565b611c15612f2b565b80600e9080519060200190611c2b929190613b82565b5050565b6000611c3a82612fae565b9050919050565b600181565b6101f481565b600e8054611c5990614ea9565b80601f0160208091040260200160405190810160405280929190818152602001828054611c8590614ea9565b8015611cd25780601f10611ca757610100808354040283529160200191611cd2565b820191906000526020600020905b815481529060010190602001808311611cb557829003601f168201915b505050505081565b60008073ffffffffffffffffffffffffffffffffffffffff168273ffffffffffffffffffffffffffffffffffffffff161415611d42576040517f8f4eb60400000000000000000000000000000000000000000000000000000000815260040160405180910390fd5b67ffffffffffffffff600560008473ffffffffffffffffffffffffffffffffffffffff1673ffffffffffffffffffffffffffffffffffffffff16815260200190815260200160002054169050919050565b611d9b612f2b565b611da56000613218565b565b601660039054906101000a900460ff1681565b601960149054906101000a900463ffffffff1681565b611dd8612f2b565b80601660016101000a81548160ff02191690831515021790555050565b611dfd613150565b6000611e076131a0565b9050601660029054906101000a900460ff16611e58576040517f08c379a0000000000000000000000000000000000000000000000000000000008152600401611e4f9061491b565b60405180910390fd5b6015546101f411611e9e576040517f08c379a0000000000000000000000000000000000000000000000000000000008152600401611e959061495b565b60405180910390fd5b81601554611eac9190614c93565b6101f41015611ef0576040517f08c379a0000000000000000000000000000000000000000000000000000000008152600401611ee790614abb565b60405180910390fd5b601860008273ffffffffffffffffffffffffffffffffffffffff1673ffffffffffffffffffffffffffffffffffffffff168152602001908152602001600020546005611f3c9190614da5565b821115611f7e576040517f08c379a0000000000000000000000000000000000000000000000000000000008152600401611f759061493b565b60405180910390fd5b81655af3107a4000611f909190614d4b565b3414611fd1576040517f08c379a0000000000000000000000000000000000000000000000000000000008152600401611fc890614a1b565b60405180910390fd5b6000803373ffffffffffffffffffffffffffffffffffffffff1634604051611ff8906147fe565b60006040518083038185875af1925050503d8060008114612035576040519150601f19603f3d011682016040523d82523d6000602084013e61203a565b606091505b50915091508161207f576040517f08c379a0000000000000000000000000000000000000000000000000000000008152600401612076906149bb565b60405180910390fd5b61208983856131a8565b836015600082825461209b9190614c93565b9250508190555083601860008573ffffffffffffffffffffffffffffffffffffffff1673ffffffffffffffffffffffffffffffffffffffff16815260200190815260200160002060008282546120f19190614c93565b9250508190555050505061210361320e565b50565b6000600860009054906101000a900473ffffffffffffffffffffffffffffffffffffffff16905090565b612138612f2b565b80601660046101000a81548160ff02191690831515021790555050565b60606003805461216490614ea9565b80601f016020809104026020016040519081016040528092919081815260200182805461219090614ea9565b80156121dd5780601f106121b2576101008083540402835291602001916121dd565b820191906000526020600020905b8154815290600101906020018083116121c057829003601f168201915b5050505050905090565b6121ef612f2b565b6000601260008373ffffffffffffffffffffffffffffffffffffffff1673ffffffffffffffffffffffffffffffffffffffff16815260200190815260200160002060006101000a81548160ff02191690831515021790555050565b8060076000612257612f23565b73ffffffffffffffffffffffffffffffffffffffff1673ffffffffffffffffffffffffffffffffffffffff16815260200190815260200160002060008473ffffffffffffffffffffffffffffffffffffffff1673ffffffffffffffffffffffffffffffffffffffff16815260200190815260200160002060006101000a81548160ff0219169083151502179055508173ffffffffffffffffffffffffffffffffffffffff16612304612f23565b73ffffffffffffffffffffffffffffffffffffffff167f17307eab39ab6107e8899845ad3d59bd9653f200f220920489ca2b5937696c318360405161234991906148a3565b60405180910390a35050565b61019081565b601a60009054906101000a900473ffffffffffffffffffffffffffffffffffffffff1681565b61238c84848461122e565b60008373ffffffffffffffffffffffffffffffffffffffff163b146123ee576123b7848484846132de565b6123ed576040517fd1a57ed600000000000000000000000000000000000000000000000000000000815260040160405180910390fd5b5b50505050565b6000612403836011548461343e565b905092915050565b612413612f2b565b6103e88282516124239190614d4b565b61242b6111b8565b6124359190614c93565b1115612476576040517f08c379a000000000000000000000000000000000000000000000000000000000815260040161246d9061499b565b60405180910390fd5b60005b81518110156124b9576124a682828151811061249857612497615006565b5b6020026020010151846131a8565b80806124b190614f0c565b915050612479565b505050565b6124c6612f2b565b80601660006101000a81548160ff02191690831515021790555050565b600f80546124f090614ea9565b80601f016020809104026020016040519081016040528092919081815260200182805461251c90614ea9565b80156125695780601f1061253e57610100808354040283529160200191612569565b820191906000526020600020905b81548152906001019060200180831161254c57829003601f168201915b505050505081565b600d805461257e90614ea9565b80601f01602080910402602001604051908101604052809291908181526020018280546125aa90614ea9565b80156125f75780601f106125cc576101008083540402835291602001916125f7565b820191906000526020600020905b8154815290600101906020018083116125da57829003601f168201915b505050505081565b612607612f2b565b80601660026101000a81548160ff02191690831515021790555050565b803414612666576040517f08c379a000000000000000000000000000000000000000000000000000000000815260040161265d906149db565b60405180910390fd5b60006064601960149054906101000a900463ffffffff166126879190614d1a565b63ffffffff16826126989190614d4b565b90503373ffffffffffffffffffffffffffffffffffffffff166108fc829081150290604051600060405180830381858888f193505050501580156126e0573d6000803e3d6000fd5b505050565b60606126f082612ec4565b61272f576040517f08c379a000000000000000000000000000000000000000000000000000000000815260040161272690614a9b565b60405180910390fd5b601660049054906101000a900460ff166127d5576017805461275090614ea9565b80601f016020809104026020016040519081016040528092919081815260200182805461277c90614ea9565b80156127c95780601f1061279e576101008083540402835291602001916127c9565b820191906000526020600020905b8154815290600101906020018083116127ac57829003601f168201915b50505050509050612831565b60006127df613455565b905060008151116127ff576040518060200160405280600081525061282d565b80612809846134e7565b600f60405160200161281d939291906147cd565b6040516020818303038152906040525b9150505b919050565b61283e613150565b60006128486131a0565b905061287a823360405160200161285f91906147b2565b604051602081830303815290604052805190602001206123f4565b6128b9576040517f08c379a00000000000000000000000000000000000000000000000000000000081526004016128b0906148fb565b60405180910390fd5b601360008273ffffffffffffffffffffffffffffffffffffffff1673ffffffffffffffffffffffffffffffffffffffff16815260200190815260200160002060009054906101000a900460ff1615612946576040517f08c379a000000000000000000000000000000000000000000000000000000000815260040161293d906149fb565b60405180910390fd5b601660009054906101000a900460ff16612995576040517f08c379a000000000000000000000000000000000000000000000000000000000815260040161298c9061491b565b60405180910390fd5b601860008273ffffffffffffffffffffffffffffffffffffffff1673ffffffffffffffffffffffffffffffffffffffff1681526020019081526020016000205460016129e19190614da5565b831115612a23576040517f08c379a0000000000000000000000000000000000000000000000000000000008152600401612a1a9061493b565b60405180910390fd5b82612a2c6111b8565b612a369190614c93565b6103e81015612a7a576040517f08c379a0000000000000000000000000000000000000000000000000000000008152600401612a7190614a3b565b60405180910390fd5b82655af3107a4000612a8c9190614d4b565b3414612acd576040517f08c379a0000000000000000000000000000000000000000000000000000000008152600401612ac490614a1b565b60405180910390fd5b6000803373ffffffffffffffffffffffffffffffffffffffff1634604051612af4906147fe565b60006040518083038185875af1925050503d8060008114612b31576040519150601f19603f3d011682016040523d82523d6000602084013e612b36565b606091505b509150915081612b7b576040517f08c379a0000000000000000000000000000000000000000000000000000000008152600401612b72906149bb565b60405180910390fd5b612b8583866131a8565b84601860008573ffffffffffffffffffffffffffffffffffffffff1673ffffffffffffffffffffffffffffffffffffffff1681526020019081526020016000206000828254612bd49190614c93565b92505081905550505050612be661320e565b5050565b60155481565b6000612bfb826135bf565b9050919050565b612c0a612f2b565b60148163ffffffff161115612c54576040517f08c379a0000000000000000000000000000000000000000000000000000000008152600401612c4b90614afb565b60405180910390fd5b80601960146101000a81548163ffffffff021916908363ffffffff16021790555050565b6000600760008473ffffffffffffffffffffffffffffffffffffffff1673ffffffffffffffffffffffffffffffffffffffff16815260200190815260200160002060008373ffffffffffffffffffffffffffffffffffffffff1673ffffffffffffffffffffffffffffffffffffffff16815260200190815260200160002060009054906101000a900460ff16905092915050565b60115481565b612d1a612f2b565b8060179080519060200190612d30929190613b82565b5050565b612d3c612f2b565b600073ffffffffffffffffffffffffffffffffffffffff168173ffffffffffffffffffffffffffffffffffffffff161415612dac576040517f08c379a0000000000000000000000000000000000000000000000000000000008152600401612da39061497b565b60405180910390fd5b612db581613218565b50565b60006301ffc9a760e01b827bffffffffffffffffffffffffffffffffffffffffffffffffffffffff19161480612e1357506380ac58cd60e01b827bffffffffffffffffffffffffffffffffffffffffffffffffffffffff1916145b80612e435750635b5e139f60e01b827bffffffffffffffffffffffffffffffffffffffffffffffffffffffff1916145b9050919050565b60007f2a55205a000000000000000000000000000000000000000000000000000000007bffffffffffffffffffffffffffffffffffffffffffffffffffffffff1916827bffffffffffffffffffffffffffffffffffffffffffffffffffffffff19161480612ebd5750612ebc82613616565b5b9050919050565b600081612ecf612fa9565b11158015612ede575060005482105b8015612f1c575060007c0100000000000000000000000000000000000000000000000000000000600460008581526020019081526020016000205416145b9050919050565b600033905090565b612f336131a0565b73ffffffffffffffffffffffffffffffffffffffff16612f51612106565b73ffffffffffffffffffffffffffffffffffffffff1614612fa7576040517f08c379a0000000000000000000000000000000000000000000000000000000008152600401612f9e90614a7b565b60405180910390fd5b565b600090565b60008082905080612fbd612fa9565b11613045576000548110156130445760006004600083815260200190815260200160002054905060007c010000000000000000000000000000000000000000000000000000000082161415613042575b600081141561303857600460008360019003935083815260200190815260200160002054905061300d565b8092505050613077565b505b5b6040517fdf2d9b4200000000000000000000000000000000000000000000000000000000815260040160405180910390fd5b919050565b60008060006006600085815260200190815260200160002090508092508254915050915091565b600073ffffffffffffffffffffffffffffffffffffffff8316925073ffffffffffffffffffffffffffffffffffffffff821691508382148383141790509392505050565b50505050565b60008060e883901c905060e8613104868684613680565b62ffffff16901b9150509392505050565b600073ffffffffffffffffffffffffffffffffffffffff83169250814260a01b178317905092915050565b50505050565b6000612710905090565b60026009541415613196576040517f08c379a000000000000000000000000000000000000000000000000000000000815260040161318d90614adb565b60405180910390fd5b6002600981905550565b600033905090565b6103e8816131b533612bf0565b6131bf9190614c93565b1115613200576040517f08c379a00000000000000000000000000000000000000000000000000000000081526004016131f79061499b565b60405180910390fd5b61320a8282613689565b5050565b6001600981905550565b6000600860009054906101000a900473ffffffffffffffffffffffffffffffffffffffff16905081600860006101000a81548173ffffffffffffffffffffffffffffffffffffffff021916908373ffffffffffffffffffffffffffffffffffffffff1602179055508173ffffffffffffffffffffffffffffffffffffffff168173ffffffffffffffffffffffffffffffffffffffff167f8be0079c531659141344cd1fd0a4f28419497f9722a3daafe3b4186f6b6457e060405160405180910390a35050565b60008373ffffffffffffffffffffffffffffffffffffffff1663150b7a02613304612f23565b8786866040518563ffffffff1660e01b8152600401613326949392919061482e565b602060405180830381600087803b15801561334057600080fd5b505af192505050801561337157506040513d601f19601f8201168201806040525081019061336e91906141a3565b60015b6133eb573d80600081146133a1576040519150601f19603f3d011682016040523d82523d6000602084013e6133a6565b606091505b506000815114156133e3576040517fd1a57ed600000000000000000000000000000000000000000000000000000000815260040160405180910390fd5b805181602001fd5b63150b7a0260e01b7bffffffffffffffffffffffffffffffffffffffffffffffffffffffff1916817bffffffffffffffffffffffffffffffffffffffffffffffffffffffff191614915050949350505050565b60008261344b85846136a7565b1490509392505050565b6060600e805461346490614ea9565b80601f016020809104026020016040519081016040528092919081815260200182805461349090614ea9565b80156134dd5780601f106134b2576101008083540402835291602001916134dd565b820191906000526020600020905b8154815290600101906020018083116134c057829003601f168201915b5050505050905090565b6060600060016134f6846136fd565b01905060008167ffffffffffffffff81111561351557613514615035565b5b6040519080825280601f01601f1916602001820160405280156135475781602001600182028036833780820191505090505b509050600082602001820190505b6001156135b4578080600190039150507f3031323334353637383961626364656600000000000000000000000000000000600a86061a8153600a858161359e5761359d614fa8565b5b04945060008514156135af576135b4565b613555565b819350505050919050565b600067ffffffffffffffff6040600560008573ffffffffffffffffffffffffffffffffffffffff1673ffffffffffffffffffffffffffffffffffffffff16815260200190815260200160002054901c169050919050565b60007f01ffc9a7000000000000000000000000000000000000000000000000000000007bffffffffffffffffffffffffffffffffffffffffffffffffffffffff1916827bffffffffffffffffffffffffffffffffffffffffffffffffffffffff1916149050919050565b60009392505050565b6136a3828260405180602001604052806000815250613850565b5050565b60008082905060005b84518110156136f2576136dd828683815181106136d0576136cf615006565b5b60200260200101516138ed565b915080806136ea90614f0c565b9150506136b0565b508091505092915050565b600080600090507a184f03e93ff9f4daa797ed6e38ed64bf6a1f010000000000000000831061375b577a184f03e93ff9f4daa797ed6e38ed64bf6a1f010000000000000000838161375157613750614fa8565b5b0492506040810190505b6d04ee2d6d415b85acef81000000008310613798576d04ee2d6d415b85acef8100000000838161378e5761378d614fa8565b5b0492506020810190505b662386f26fc1000083106137c757662386f26fc1000083816137bd576137bc614fa8565b5b0492506010810190505b6305f5e10083106137f0576305f5e10083816137e6576137e5614fa8565b5b0492506008810190505b612710831061381557612710838161380b5761380a614fa8565b5b0492506004810190505b60648310613838576064838161382e5761382d614fa8565b5b0492506002810190505b600a8310613847576001810190505b80915050919050565b61385a8383613918565b60008373ffffffffffffffffffffffffffffffffffffffff163b146138e857600080549050600083820390505b61389a60008683806001019450866132de565b6138d0576040517fd1a57ed600000000000000000000000000000000000000000000000000000000815260040160405180910390fd5b8181106138875781600054146138e557600080fd5b50505b505050565b6000818310613905576139008284613ad5565b613910565b61390f8383613ad5565b5b905092915050565b6000805490506000821415613959576040517fb562e8dd00000000000000000000000000000000000000000000000000000000815260040160405180910390fd5b61396660008483856130e7565b600160406001901b178202600560008573ffffffffffffffffffffffffffffffffffffffff1673ffffffffffffffffffffffffffffffffffffffff168152602001908152602001600020600082825401925050819055506139dd836139ce60008660006130ed565b6139d785613aec565b17613115565b6004600083815260200190815260200160002081905550600080838301905073ffffffffffffffffffffffffffffffffffffffff85169150828260007fddf252ad1be2c89b69c2b068fc378daa952ba7f163c4a11628f55a4df523b3ef600080a4600183015b818114613a7e57808360007fddf252ad1be2c89b69c2b068fc378daa952ba7f163c4a11628f55a4df523b3ef600080a4600181019050613a43565b506000821415613aba576040517f2e07630000000000000000000000000000000000000000000000000000000000815260040160405180910390fd5b806000819055505050613ad06000848385613140565b505050565b600082600052816020526040600020905092915050565b60006001821460e11b9050919050565b828054613b0890614ea9565b90600052602060002090601f016020900481019282613b2a5760008555613b71565b82601f10613b4357803560ff1916838001178555613b71565b82800160010185558215613b71579182015b82811115613b70578235825591602001919060010190613b55565b5b509050613b7e9190613c08565b5090565b828054613b8e90614ea9565b90600052602060002090601f016020900481019282613bb05760008555613bf7565b82601f10613bc957805160ff1916838001178555613bf7565b82800160010185558215613bf7579182015b82811115613bf6578251825591602001919060010190613bdb565b5b509050613c049190613c08565b5090565b5b80821115613c21576000816000905550600101613c09565b5090565b6000613c38613c3384614b76565b614b51565b90508083825260208201905082856020860282011115613c5b57613c5a61506e565b5b60005b85811015613c8b5781613c718882613d89565b845260208401935060208301925050600181019050613c5e565b5050509392505050565b6000613ca8613ca384614ba2565b614b51565b90508083825260208201905082856020860282011115613ccb57613cca61506e565b5b60005b85811015613cfb5781613ce18882613e0f565b845260208401935060208301925050600181019050613cce565b5050509392505050565b6000613d18613d1384614bce565b614b51565b905082815260208101848484011115613d3457613d33615073565b5b613d3f848285614e67565b509392505050565b6000613d5a613d5584614bff565b614b51565b905082815260208101848484011115613d7657613d75615073565b5b613d81848285614e67565b509392505050565b600081359050613d98816153ce565b92915050565b600082601f830112613db357613db2615069565b5b8135613dc3848260208601613c25565b91505092915050565b600082601f830112613de157613de0615069565b5b8135613df1848260208601613c95565b91505092915050565b600081359050613e09816153e5565b92915050565b600081359050613e1e816153fc565b92915050565b600081359050613e3381615413565b92915050565b600081519050613e4881615413565b92915050565b600082601f830112613e6357613e62615069565b5b8135613e73848260208601613d05565b91505092915050565b60008083601f840112613e9257613e91615069565b5b8235905067ffffffffffffffff811115613eaf57613eae615064565b5b602083019150836001820283011115613ecb57613eca61506e565b5b9250929050565b600082601f830112613ee757613ee6615069565b5b8135613ef7848260208601613d47565b91505092915050565b600081359050613f0f8161542a565b92915050565b600081359050613f2481615441565b92915050565b600060208284031215613f4057613f3f61507d565b5b6000613f4e84828501613d89565b91505092915050565b60008060408385031215613f6e57613f6d61507d565b5b6000613f7c85828601613d89565b9250506020613f8d85828601613d89565b9150509250929050565b600080600060608486031215613fb057613faf61507d565b5b6000613fbe86828701613d89565b9350506020613fcf86828701613d89565b9250506040613fe086828701613f00565b9150509250925092565b600080600080608085870312156140045761400361507d565b5b600061401287828801613d89565b945050602061402387828801613d89565b935050604061403487828801613f00565b925050606085013567ffffffffffffffff81111561405557614054615078565b5b61406187828801613e4e565b91505092959194509250565b600080604083850312156140845761408361507d565b5b600061409285828601613d89565b92505060206140a385828601613dfa565b9150509250929050565b600080604083850312156140c4576140c361507d565b5b60006140d285828601613d89565b92505060206140e385828601613f00565b9150509250929050565b600080604083850312156141045761410361507d565b5b600083013567ffffffffffffffff81111561412257614121615078565b5b61412e85828601613dcc565b925050602061413f85828601613e0f565b9150509250929050565b60006020828403121561415f5761415e61507d565b5b600061416d84828501613dfa565b91505092915050565b60006020828403121561418c5761418b61507d565b5b600061419a84828501613e24565b91505092915050565b6000602082840312156141b9576141b861507d565b5b60006141c784828501613e39565b91505092915050565b600080602083850312156141e7576141e661507d565b5b600083013567ffffffffffffffff81111561420557614204615078565b5b61421185828601613e7c565b92509250509250929050565b6000602082840312156142335761423261507d565b5b600082013567ffffffffffffffff81111561425157614250615078565b5b61425d84828501613ed2565b91505092915050565b60006020828403121561427c5761427b61507d565b5b600061428a84828501613f00565b91505092915050565b600080604083850312156142aa576142a961507d565b5b60006142b885828601613f00565b925050602083013567ffffffffffffffff8111156142d9576142d8615078565b5b6142e585828601613d9e565b9150509250929050565b600080604083850312156143065761430561507d565b5b600061431485828601613f00565b925050602083013567ffffffffffffffff81111561433557614334615078565b5b61434185828601613dcc565b9150509250929050565b600080604083850312156143625761436161507d565b5b600061437085828601613f00565b925050602061438185828601613f00565b9150509250929050565b6000602082840312156143a1576143a061507d565b5b60006143af84828501613f15565b91505092915050565b6143c181614dd9565b82525050565b6143d86143d382614dd9565b614f55565b82525050565b6143e781614deb565b82525050565b6143f681614df7565b82525050565b600061440782614c45565b6144118185614c5b565b9350614421818560208601614e76565b61442a81615082565b840191505092915050565b600061444082614c50565b61444a8185614c77565b935061445a818560208601614e76565b61446381615082565b840191505092915050565b600061447982614c50565b6144838185614c88565b9350614493818560208601614e76565b80840191505092915050565b600081546144ac81614ea9565b6144b68186614c88565b945060018216600081146144d157600181146144e257614515565b60ff19831686528186019350614515565b6144eb85614c30565b60005b8381101561450d578154818901526001820191506020810190506144ee565b838801955050505b50505092915050565b600061452b601f83614c77565b9150614536826150a0565b602082019050919050565b600061454e600e83614c77565b9150614559826150c9565b602082019050919050565b6000614571601283614c77565b915061457c826150f2565b602082019050919050565b6000614594600883614c77565b915061459f8261511b565b602082019050919050565b60006145b7602683614c77565b91506145c282615144565b604082019050919050565b60006145da601683614c77565b91506145e582615193565b602082019050919050565b60006145fd601483614c77565b9150614608826151bc565b602082019050919050565b6000614620601583614c77565b915061462b826151e5565b602082019050919050565b6000614643601b83614c77565b915061464e8261520e565b602082019050919050565b6000614666601283614c77565b915061467182615237565b602082019050919050565b6000614689601783614c77565b915061469482615260565b602082019050919050565b60006146ac602383614c77565b91506146b782615289565b604082019050919050565b60006146cf602083614c77565b91506146da826152d8565b602082019050919050565b60006146f2602f83614c77565b91506146fd82615301565b604082019050919050565b6000614715600083614c6c565b915061472082615350565b600082019050919050565b6000614738601d83614c77565b915061474382615353565b602082019050919050565b600061475b601f83614c77565b91506147668261537c565b602082019050919050565b600061477e601c83614c77565b9150614789826153a5565b602082019050919050565b61479d81614e4d565b82525050565b6147ac81614e57565b82525050565b60006147be82846143c7565b60148201915081905092915050565b60006147d9828661446e565b91506147e5828561446e565b91506147f1828461449f565b9150819050949350505050565b600061480982614708565b9150819050919050565b600060208201905061482860008301846143b8565b92915050565b600060808201905061484360008301876143b8565b61485060208301866143b8565b61485d6040830185614794565b818103606083015261486f81846143fc565b905095945050505050565b600060408201905061488f60008301856143b8565b61489c6020830184614794565b9392505050565b60006020820190506148b860008301846143de565b92915050565b60006020820190506148d360008301846143ed565b92915050565b600060208201905081810360008301526148f38184614435565b905092915050565b600060208201905081810360008301526149148161451e565b9050919050565b6000602082019050818103600083015261493481614541565b9050919050565b6000602082019050818103600083015261495481614564565b9050919050565b6000602082019050818103600083015261497481614587565b9050919050565b60006020820190508181036000830152614994816145aa565b9050919050565b600060208201905081810360008301526149b4816145cd565b9050919050565b600060208201905081810360008301526149d4816145f0565b9050919050565b600060208201905081810360008301526149f481614613565b9050919050565b60006020820190508181036000830152614a1481614636565b9050919050565b60006020820190508181036000830152614a3481614659565b9050919050565b60006020820190508181036000830152614a548161467c565b9050919050565b60006020820190508181036000830152614a748161469f565b9050919050565b60006020820190508181036000830152614a94816146c2565b9050919050565b60006020820190508181036000830152614ab4816146e5565b9050919050565b60006020820190508181036000830152614ad48161472b565b9050919050565b60006020820190508181036000830152614af48161474e565b9050919050565b60006020820190508181036000830152614b1481614771565b9050919050565b6000602082019050614b306000830184614794565b92915050565b6000602082019050614b4b60008301846147a3565b92915050565b6000614b5b614b6c565b9050614b678282614edb565b919050565b6000604051905090565b600067ffffffffffffffff821115614b9157614b90615035565b5b602082029050602081019050919050565b600067ffffffffffffffff821115614bbd57614bbc615035565b5b602082029050602081019050919050565b600067ffffffffffffffff821115614be957614be8615035565b5b614bf282615082565b9050602081019050919050565b600067ffffffffffffffff821115614c1a57614c19615035565b5b614c2382615082565b9050602081019050919050565b60008190508160005260206000209050919050565b600081519050919050565b600081519050919050565b600082825260208201905092915050565b600081905092915050565b600082825260208201905092915050565b600081905092915050565b6000614c9e82614e4d565b9150614ca983614e4d565b9250827fffffffffffffffffffffffffffffffffffffffffffffffffffffffffffffffff03821115614cde57614cdd614f79565b5b828201905092915050565b6000614cf482614e4d565b9150614cff83614e4d565b925082614d0f57614d0e614fa8565b5b828204905092915050565b6000614d2582614e57565b9150614d3083614e57565b925082614d4057614d3f614fa8565b5b828204905092915050565b6000614d5682614e4d565b9150614d6183614e4d565b9250817fffffffffffffffffffffffffffffffffffffffffffffffffffffffffffffffff0483118215151615614d9a57614d99614f79565b5b828202905092915050565b6000614db082614e4d565b9150614dbb83614e4d565b925082821015614dce57614dcd614f79565b5b828203905092915050565b6000614de482614e2d565b9050919050565b60008115159050919050565b6000819050919050565b60007fffffffff0000000000000000000000000000000000000000000000000000000082169050919050565b600073ffffffffffffffffffffffffffffffffffffffff82169050919050565b6000819050919050565b600063ffffffff82169050919050565b82818337600083830152505050565b60005b83811015614e94578082015181840152602081019050614e79565b83811115614ea3576000848401525b50505050565b60006002820490506001821680614ec157607f821691505b60208210811415614ed557614ed4614fd7565b5b50919050565b614ee482615082565b810181811067ffffffffffffffff82111715614f0357614f02615035565b5b80604052505050565b6000614f1782614e4d565b91507fffffffffffffffffffffffffffffffffffffffffffffffffffffffffffffffff821415614f4a57614f49614f79565b5b600182019050919050565b6000614f6082614f67565b9050919050565b6000614f7282615093565b9050919050565b7f4e487b7100000000000000000000000000000000000000000000000000000000600052601160045260246000fd5b7f4e487b7100000000000000000000000000000000000000000000000000000000600052601260045260246000fd5b7f4e487b7100000000000000000000000000000000000000000000000000000000600052602260045260246000fd5b7f4e487b7100000000000000000000000000000000000000000000000000000000600052603260045260246000fd5b7f4e487b7100000000000000000000000000000000000000000000000000000000600052604160045260246000fd5b600080fd5b600080fd5b600080fd5b600080fd5b600080fd5b600080fd5b6000601f19601f8301169050919050565b60008160601b9050919050565b7f41646472657373206973206e6f74206f6e207468652077686974656c69737400600082015250565b7f53616c6520697320636c6f736564000000000000000000000000000000000000600082015250565b7f4d696e74206c696d697420726561636865640000000000000000000000000000600082015250565b7f536f6c64204f7574000000000000000000000000000000000000000000000000600082015250565b7f4f776e61626c653a206e6577206f776e657220697320746865207a65726f206160008201527f6464726573730000000000000000000000000000000000000000000000000000602082015250565b7f52656163686564206d6178696d756d20737570706c7900000000000000000000600082015250565b7f4661696c656420746f2073656e64204574686572000000000000000000000000600082015250565b7f496e636f727265637420616d6f756e742073656e740000000000000000000000600082015250565b7f416464726573732068617320616c726561647920636c61696d65640000000000600082015250565b7f496e73756666696369656e742066756e64730000000000000000000000000000600082015250565b7f4d6178696d756d20737570706c79206578636565646564000000000000000000600082015250565b7f4164647265737320697320616c7265616479206f6e207468652077686974656c60008201527f6973740000000000000000000000000000000000000000000000000000000000602082015250565b7f4f776e61626c653a2063616c6c6572206973206e6f7420746865206f776e6572600082015250565b7f4552433732314d657461646174613a2055524920717565727920666f72206e6f60008201527f6e6578697374656e7420746f6b656e0000000000000000000000000000000000602082015250565b50565b7f5472616e73666572206578636565647320746f74616c20737570706c79000000600082015250565b7f5265656e7472616e637947756172643a207265656e7472616e742063616c6c00600082015250565b7f526f79616c7479206665652063616e2774206578636565642025323000000000600082015250565b6153d781614dd9565b81146153e257600080fd5b50565b6153ee81614deb565b81146153f957600080fd5b50565b61540581614df7565b811461541057600080fd5b50565b61541c81614e01565b811461542757600080fd5b50565b61543381614e4d565b811461543e57600080fd5b50565b61544a81614e57565b811461545557600080fd5b5056fea26469706673582212201eef8c7e5f272203503cccacf1ed13328a39efef9b1bfed5f5794885dbfacc0664736f6c63430008070033",
    "linkReferences": {},
    "deployedLinkReferences": {}
}